{
  "contractName": "Music",
  "abi": [
    {
      "constant": true,
      "inputs": [
        {
          "name": "",
          "type": "uint256"
        }
      ],
      "name": "songChoices",
      "outputs": [
        {
          "name": "id",
          "type": "uint256"
        },
        {
          "name": "name",
          "type": "string"
        },
        {
          "name": "voteCount",
          "type": "uint256"
        }
      ],
      "payable": false,
      "stateMutability": "view",
      "type": "function"
    },
    {
      "constant": true,
      "inputs": [],
      "name": "songChoicesCount",
      "outputs": [
        {
          "name": "",
          "type": "uint256"
        }
      ],
      "payable": false,
      "stateMutability": "view",
      "type": "function"
    },
    {
      "constant": true,
      "inputs": [
        {
          "name": "",
          "type": "address"
        }
      ],
      "name": "voters",
      "outputs": [
        {
          "name": "",
          "type": "bool"
        }
      ],
      "payable": false,
      "stateMutability": "view",
      "type": "function"
    },
    {
      "inputs": [],
      "payable": false,
      "stateMutability": "nonpayable",
      "type": "constructor"
    },
    {
      "anonymous": false,
      "inputs": [
        {
          "indexed": true,
          "name": "_songId",
          "type": "uint256"
        }
      ],
      "name": "votedEvent",
      "type": "event"
    },
    {
      "constant": false,
      "inputs": [
        {
          "name": "_songId",
          "type": "uint256"
        }
      ],
      "name": "vote",
      "outputs": [],
      "payable": false,
      "stateMutability": "nonpayable",
      "type": "function"
    }
  ],
  "bytecode": "0x608060405234801561001057600080fd5b5061005e6040805190810160405280600c81526020017f536f6e6743686f696365203100000000000000000000000000000000000000008152506100b0640100000000026401000000009004565b6100ab6040805190810160405280600c81526020017f536f6e6743686f696365203200000000000000000000000000000000000000008152506100b0640100000000026401000000009004565b6101d2565b6002600081548092919060010191905055506060604051908101604052806002548152602001828152602001600081525060016000600254815260200190815260200160002060008201518160000155602082015181600101908051906020019061011c92919061012d565b506040820151816002015590505050565b828054600181600116156101000203166002900490600052602060002090601f016020900481019282601f1061016e57805160ff191683800117855561019c565b8280016001018555821561019c579182015b8281111561019b578251825591602001919060010190610180565b5b5090506101a991906101ad565b5090565b6101cf91905b808211156101cb5760008160009055506001016101b3565b5090565b90565b6103ad806101e16000396000f300608060405260043610610062576000357c0100000000000000000000000000000000000000000000000000000000900463ffffffff1680630121b93f146100675780633ef48206146100945780637129b23314610148578063a3ec138d14610173575b600080fd5b34801561007357600080fd5b50610092600480360381019080803590602001909291905050506101ce565b005b3480156100a057600080fd5b506100bf60048036038101908080359060200190929190505050610299565b6040518084815260200180602001838152602001828103825284818151815260200191508051906020019080838360005b8381101561010b5780820151818401526020810190506100f0565b50505050905090810190601f1680156101385780820380516001836020036101000a031916815260200191505b5094505050505060405180910390f35b34801561015457600080fd5b5061015d61035b565b6040518082815260200191505060405180910390f35b34801561017f57600080fd5b506101b4600480360381019080803573ffffffffffffffffffffffffffffffffffffffff169060200190929190505050610361565b604051808215151515815260200191505060405180910390f35b6000803373ffffffffffffffffffffffffffffffffffffffff1673ffffffffffffffffffffffffffffffffffffffff16815260200190815260200160002060009054906101000a900460ff1615151561022657600080fd5b60008111801561023857506002548111155b151561024357600080fd5b6001600082815260200190815260200160002060020160008154809291906001019190505550807ffff3c900d938d21d0990d786e819f29b8d05c1ef587b462b939609625b684b1660405160405180910390a250565b6001602052806000526040600020600091509050806000015490806001018054600181600116156101000203166002900480601f01602080910402602001604051908101604052809291908181526020018280546001816001161561010002031660029004801561034b5780601f106103205761010080835404028352916020019161034b565b820191906000526020600020905b81548152906001019060200180831161032e57829003601f168201915b5050505050908060020154905083565b60025481565b60006020528060005260406000206000915054906101000a900460ff16815600a165627a7a72305820904f51f389f513449c4f8598047e5c33c62af49cd116a01e318c0d023610eb6e0029",
  "source": "pragma solidity ^0.4.17;\r\n\r\ncontract Music {\r\n    /* Model a SongChoice */\r\n    struct SongChoice {\r\n        uint id;\r\n        string name;\r\n        uint voteCount;\r\n    }\r\n    \r\n    // Store accounts that have voted\r\n    mapping(address => bool) public voters;\r\n\r\n\r\n    // Store a @songchoices\r\n    // Fetch @SongName\r\n    mapping(uint => SongChoice) public songChoices;\r\n    // Store songChoices count\r\n    uint public songChoicesCount;\r\n\r\n    // voted for song\r\n    event votedEvent (\r\n        uint indexed _songId\r\n    );\r\n\r\n\r\n\r\n    // Constructor to set value of variable song name\r\n    // Keeps track of how many song choices there are \r\n    constructor () public {\r\n        addSongChoice(\"SongChoice 1\");\r\n        addSongChoice(\"SongChoice 2\");   \r\n\r\n    }\r\n\r\n    /* We add a different @songChoice here and increment */\r\n    function addSongChoice (string _name) private {\r\n        // increment songChoice count\r\n        songChoicesCount ++;\r\n        /* Create @songChoice and then assign it to new \r\n        songchoice and assign the id, name and voteCount */\r\n        songChoices[songChoicesCount] = SongChoice(songChoicesCount, _name, 0);\r\n    }\r\n\r\n    function vote (uint _songId) public {\r\n        // require that they havent voted before\r\n        require(!voters[msg.sender]);\r\n\r\n        // require a validate song\r\n        require(_songId > 0 && _songId <= songChoicesCount);\r\n\r\n        //record that a voter has voted\r\n        songChoices[_songId].voteCount ++;\r\n\r\n        // trigger voted event\r\n        votedEvent(_songId);\r\n    }\r\n}",
  "sourcePath": "C:\\Users\\Rob\\Documents\\MusicBlockchain\\contracts\\Music.sol",
  "compiler": {
    "name": "solc",
    "version": "0.4.24+commit.e67f0147.Emscripten.clang"
  },
  "schemaVersion": "2.0.1",
  "updatedAt": "2018-08-26T21:38:05.304Z"
}